:0300000002011CDE
:0C011C00787FE4F6D8FD758120020163B5
:0201E500C10057
:1001C000EF1FAA0670011E4A600BE4FDEDC39464A4
:0501D00050EE0D80F768
:0101D5002207
:0F000300758911D2AAD28AE4F58AF58CD2AF2280
:1001A800C2B2C2B5C2B475B2C0E4F5B11200037FE1
:0801B800647E001201C080F713
:0E01D6007FC87E00EF1FAC0670011E4C70F655
:0101E40022F8
:03001300020016D2
:10001600C0E0C0D075D000C000C002C004C005C09A
:0300260006C0070A
:10002900758A00758C00D28C30B3FDC28CE58CC307
:10003900941E500302010BE58CD39428400302015E
:100049000B758C00D28C30B30D1201D6E58CD3948C
:100059001640F302010BC28CE58CC3940C500302C9
:10006900010BE4FD750C0030B3FD758C00D28C30AA
:10007900B30D1201D6E58CD3940F40F302010BC2E4
:100089008C74082DF8C000E6C313D000F6E58CD3B4
:100099009404400874082DF8E64480F6050CE50C34
:1000A900C3940840C20DBD04BBB2B2E50AB4400412
:1000B900C2B5C2B4E50AB4070FD2B4C2B57FDC7EBB
:1000C900051201C0C2B5C2B4E50AB4090FD2B5C25E
:1000D900B47FDC7E051201C0C2B5C2B4E50AB444DE
:1000E90004D2B4C2B5E50AB44304D2B5C2B4E50A30
:1000F900B41904D2B5D2B4E50AB41504D2B5D2B450
:02010900C28DA5
:10010B00D007D006D005D004D002D000D0D0D0E09C
:01011B0032B1
:100128000201A8E493A3F8E493A34003F68001F244
:1001380008DFF48029E493A3F85407240CC8C333D8
:10014800C4540F4420C8834004F456800146F6DFA7
:10015800E4800B01020408102040809001E5E47E51
:10016800019360BCA3FF543F30E509541FFEE4939C
:10017800A360010ECF54C025E060A840B8E493A363
:10018800FAE493A3F8E493A3C8C582C8CAC583CA8E
:10019800F0A3C8C582C8CAC583CADFE9DEE780BE46
:0101E7000017
:00000001FF
